:1000000000308A000428000003081F39830083168B
:100010008E15073083129F008313A2011330A100B5
:10002000A4012630A300FF3083168500003086002F
:10003000831285018601001C3C282208F900210852
:10004000F800F90CF80CF90CF80CF90C780895008C
:10005000F90C790C3039F7001708CF39770497007D
:100060001830F80006389200093083169200831287
:1000700086110C3097005A282408F9002308F8004C
:10008000F90CF80CF90CF80CF90C78089500F90C3F
:10009000790C3039F7001708CF39770497001830FA
:1000A000F8000638920009308316920083128611F8
:0800B0000C3097001B286300CF
:02400E00303F41
:00000001FF
;PIC16F628A
;CRC=4FD1  CREATED="16-may.-25 11:01"
